{
  "_format": "hh-sol-artifact-1",
  "contractName": "MyEpicNFT",
  "sourceName": "contracts/MyEpicNFT.sol",
  "abi": [
    {
      "inputs": [],
      "stateMutability": "nonpayable",
      "type": "constructor"
    },
    {
      "anonymous": false,
      "inputs": [
        {
          "indexed": true,
          "internalType": "address",
          "name": "owner",
          "type": "address"
        },
        {
          "indexed": true,
          "internalType": "address",
          "name": "approved",
          "type": "address"
        },
        {
          "indexed": true,
          "internalType": "uint256",
          "name": "tokenId",
          "type": "uint256"
        }
      ],
      "name": "Approval",
      "type": "event"
    },
    {
      "anonymous": false,
      "inputs": [
        {
          "indexed": true,
          "internalType": "address",
          "name": "owner",
          "type": "address"
        },
        {
          "indexed": true,
          "internalType": "address",
          "name": "operator",
          "type": "address"
        },
        {
          "indexed": false,
          "internalType": "bool",
          "name": "approved",
          "type": "bool"
        }
      ],
      "name": "ApprovalForAll",
      "type": "event"
    },
    {
      "anonymous": false,
      "inputs": [
        {
          "indexed": false,
          "internalType": "address",
          "name": "sender",
          "type": "address"
        },
        {
          "indexed": false,
          "internalType": "uint256",
          "name": "tokenId",
          "type": "uint256"
        }
      ],
      "name": "NewEpicNFTMinted",
      "type": "event"
    },
    {
      "anonymous": false,
      "inputs": [
        {
          "indexed": true,
          "internalType": "address",
          "name": "from",
          "type": "address"
        },
        {
          "indexed": true,
          "internalType": "address",
          "name": "to",
          "type": "address"
        },
        {
          "indexed": true,
          "internalType": "uint256",
          "name": "tokenId",
          "type": "uint256"
        }
      ],
      "name": "Transfer",
      "type": "event"
    },
    {
      "inputs": [
        {
          "internalType": "address",
          "name": "to",
          "type": "address"
        },
        {
          "internalType": "uint256",
          "name": "tokenId",
          "type": "uint256"
        }
      ],
      "name": "approve",
      "outputs": [],
      "stateMutability": "nonpayable",
      "type": "function"
    },
    {
      "inputs": [
        {
          "internalType": "address",
          "name": "owner",
          "type": "address"
        }
      ],
      "name": "balanceOf",
      "outputs": [
        {
          "internalType": "uint256",
          "name": "",
          "type": "uint256"
        }
      ],
      "stateMutability": "view",
      "type": "function"
    },
    {
      "inputs": [
        {
          "internalType": "uint256",
          "name": "tokenId",
          "type": "uint256"
        }
      ],
      "name": "getApproved",
      "outputs": [
        {
          "internalType": "address",
          "name": "",
          "type": "address"
        }
      ],
      "stateMutability": "view",
      "type": "function"
    },
    {
      "inputs": [
        {
          "internalType": "address",
          "name": "owner",
          "type": "address"
        },
        {
          "internalType": "address",
          "name": "operator",
          "type": "address"
        }
      ],
      "name": "isApprovedForAll",
      "outputs": [
        {
          "internalType": "bool",
          "name": "",
          "type": "bool"
        }
      ],
      "stateMutability": "view",
      "type": "function"
    },
    {
      "inputs": [],
      "name": "makeAnEpicNFT",
      "outputs": [],
      "stateMutability": "nonpayable",
      "type": "function"
    },
    {
      "inputs": [],
      "name": "name",
      "outputs": [
        {
          "internalType": "string",
          "name": "",
          "type": "string"
        }
      ],
      "stateMutability": "view",
      "type": "function"
    },
    {
      "inputs": [
        {
          "internalType": "uint256",
          "name": "tokenId",
          "type": "uint256"
        }
      ],
      "name": "ownerOf",
      "outputs": [
        {
          "internalType": "address",
          "name": "",
          "type": "address"
        }
      ],
      "stateMutability": "view",
      "type": "function"
    },
    {
      "inputs": [
        {
          "internalType": "uint256",
          "name": "tokenId",
          "type": "uint256"
        }
      ],
      "name": "pickRandomFirstWord",
      "outputs": [
        {
          "internalType": "string",
          "name": "",
          "type": "string"
        }
      ],
      "stateMutability": "view",
      "type": "function"
    },
    {
      "inputs": [
        {
          "internalType": "uint256",
          "name": "tokenId",
          "type": "uint256"
        }
      ],
      "name": "pickRandomFourthWord",
      "outputs": [
        {
          "internalType": "string",
          "name": "",
          "type": "string"
        }
      ],
      "stateMutability": "view",
      "type": "function"
    },
    {
      "inputs": [
        {
          "internalType": "uint256",
          "name": "tokenId",
          "type": "uint256"
        }
      ],
      "name": "pickRandomSecondWord",
      "outputs": [
        {
          "internalType": "string",
          "name": "",
          "type": "string"
        }
      ],
      "stateMutability": "view",
      "type": "function"
    },
    {
      "inputs": [
        {
          "internalType": "uint256",
          "name": "tokenId",
          "type": "uint256"
        }
      ],
      "name": "pickRandomThirdWord",
      "outputs": [
        {
          "internalType": "string",
          "name": "",
          "type": "string"
        }
      ],
      "stateMutability": "view",
      "type": "function"
    },
    {
      "inputs": [
        {
          "internalType": "address",
          "name": "from",
          "type": "address"
        },
        {
          "internalType": "address",
          "name": "to",
          "type": "address"
        },
        {
          "internalType": "uint256",
          "name": "tokenId",
          "type": "uint256"
        }
      ],
      "name": "safeTransferFrom",
      "outputs": [],
      "stateMutability": "nonpayable",
      "type": "function"
    },
    {
      "inputs": [
        {
          "internalType": "address",
          "name": "from",
          "type": "address"
        },
        {
          "internalType": "address",
          "name": "to",
          "type": "address"
        },
        {
          "internalType": "uint256",
          "name": "tokenId",
          "type": "uint256"
        },
        {
          "internalType": "bytes",
          "name": "_data",
          "type": "bytes"
        }
      ],
      "name": "safeTransferFrom",
      "outputs": [],
      "stateMutability": "nonpayable",
      "type": "function"
    },
    {
      "inputs": [
        {
          "internalType": "address",
          "name": "operator",
          "type": "address"
        },
        {
          "internalType": "bool",
          "name": "approved",
          "type": "bool"
        }
      ],
      "name": "setApprovalForAll",
      "outputs": [],
      "stateMutability": "nonpayable",
      "type": "function"
    },
    {
      "inputs": [
        {
          "internalType": "bytes4",
          "name": "interfaceId",
          "type": "bytes4"
        }
      ],
      "name": "supportsInterface",
      "outputs": [
        {
          "internalType": "bool",
          "name": "",
          "type": "bool"
        }
      ],
      "stateMutability": "view",
      "type": "function"
    },
    {
      "inputs": [],
      "name": "symbol",
      "outputs": [
        {
          "internalType": "string",
          "name": "",
          "type": "string"
        }
      ],
      "stateMutability": "view",
      "type": "function"
    },
    {
      "inputs": [
        {
          "internalType": "uint256",
          "name": "tokenId",
          "type": "uint256"
        }
      ],
      "name": "tokenURI",
      "outputs": [
        {
          "internalType": "string",
          "name": "",
          "type": "string"
        }
      ],
      "stateMutability": "view",
      "type": "function"
    },
    {
      "inputs": [
        {
          "internalType": "address",
          "name": "from",
          "type": "address"
        },
        {
          "internalType": "address",
          "name": "to",
          "type": "address"
        },
        {
          "internalType": "uint256",
          "name": "tokenId",
          "type": "uint256"
        }
      ],
      "name": "transferFrom",
      "outputs": [],
      "stateMutability": "nonpayable",
      "type": "function"
    }
  ],
  "bytecode": "0x6080604052604051806101400160405280610109815260200162004b5d6101099139600890805190602001906200003892919062000954565b506040518060e001604052806040518060400160405280600b81526020017f4120646576656c6f70657200000000000000000000000000000000000000000081525081526020016040518060400160405280600981526020017f412074656368626f69000000000000000000000000000000000000000000000081525081526020016040518060400160405280600a81526020017f412064657369676e65720000000000000000000000000000000000000000000081525081526020016040518060400160405280600981526020017f4120666f756e646572000000000000000000000000000000000000000000000081525081526020016040518060400160405280601181526020017f412070726f64756374206d616e6167657200000000000000000000000000000081525081526020016040518060400160405280601181526020017f4120636f6e74656e74206d616e6167657200000000000000000000000000000081525081526020016040518060400160405280600a81526020017f41206d61726b65746572000000000000000000000000000000000000000000008152508152506009906007620001f1929190620009e5565b506040518061016001604052806040518060400160405280600981526020017f612066696e74656368000000000000000000000000000000000000000000000081525081526020016040518060400160405280600981526020017f616e20656474656368000000000000000000000000000000000000000000000081525081526020016040518060400160405280600c81526020017f612064756b61616e74656368000000000000000000000000000000000000000081525081526020016040518060400160405280600c81526020017f616e2065636f6d6d65726365000000000000000000000000000000000000000081525081526020016040518060400160405280600681526020017f612064656669000000000000000000000000000000000000000000000000000081525081526020016040518060400160405280600c81526020017f616e206167726f2d74656368000000000000000000000000000000000000000081525081526020016040518060400160405280600c81526020017f61206865616c746863617265000000000000000000000000000000000000000081525081526020016040518060400160405280600581526020017f616e20414900000000000000000000000000000000000000000000000000000081525081526020016040518060400160405280600a81526020017f6120666f6f64746563680000000000000000000000000000000000000000000081525081526020016040518060400160405280600581526020017f612042324200000000000000000000000000000000000000000000000000000081525081526020016040518060400160405280600581526020017f6120423243000000000000000000000000000000000000000000000000000000815250815250600a90600b6200049792919062000a4c565b506040518060e001604052806040518060400160405280601f81526020017f66696e616c6973696e67206c616e64696e67207061676520636f6e74656e740081525081526020016040518060400160405280601981526020017f776f726b696e67206f6e206120667269646179206e696768740000000000000081525081526020016040518060400160405280600f81526020017f72652d64657369676e696e67205549000000000000000000000000000000000081525081526020016040518060400160405280601a81526020017f69676e6f72696e67207374616e642d7570206d656574696e677300000000000081525081526020016040518060400160405280601281526020017f636865636b696e6720616e616c7974696373000000000000000000000000000081525081526020016040518060400160405280601581526020017f646f696e67207573657220696e7465727669657773000000000000000000000081525081526020016040518060400160405280601481526020017f74616c6b696e6720746f20696e766573746f7273000000000000000000000000815250815250600b90600762000650929190620009e5565b506040518061014001604052806040518060400160405280601e81526020017f616674657220626f6f6b696e672074686569722063756c7420636c617373000081525081526020016040518060400160405280601681526020017f66726f6d2061207468697264207761766520636166650000000000000000000081525081526020016040518060400160405280601c81526020017f7768696c6520656174696e67206d656768616e612062697279616e690000000081525081526020016040518060400160405280602081526020017f7768696c65207761746368696e67206368657373206c69766573747265616d7381525081526020016040518060400160405280601a81526020017f7768696c652073637265616d696e6720696e7465726e616c6c7900000000000081525081526020016040518060400160405280601881526020017f7768696c6520636865636b696e6720746865697220425443000000000000000081525081526020016040518060400160405280601d81526020017f7768696c65206c697374656e696e6720746f2074696d20666572726973000000815250815260200160405180606001604052806022815260200162004c666022913981526020016040518060400160405280601a81526020017f7768696c65206c697374656e696e6720746f2061756469626c6500000000000081525081526020016040518060400160405280601c81526020017f7768696c652073776970696e67207468726f7567682073776967677900000000815250815250600c90600a6200089f92919062000ab3565b50348015620008ad57600080fd5b506040518060400160405280600981526020017f5371756172654e465400000000000000000000000000000000000000000000008152506040518060400160405280600681526020017f535155415245000000000000000000000000000000000000000000000000000081525081600090805190602001906200093292919062000954565b5080600190805190602001906200094b92919062000954565b50505062000c0c565b828054620009629062000ba7565b90600052602060002090601f016020900481019282620009865760008555620009d2565b82601f10620009a157805160ff1916838001178555620009d2565b82800160010185558215620009d2579182015b82811115620009d1578251825591602001919060010190620009b4565b5b509050620009e1919062000b1a565b5090565b82805482825590600052602060002090810192821562000a39579160200282015b8281111562000a3857825182908051906020019062000a2792919062000954565b509160200191906001019062000a06565b5b50905062000a48919062000b39565b5090565b82805482825590600052602060002090810192821562000aa0579160200282015b8281111562000a9f57825182908051906020019062000a8e92919062000954565b509160200191906001019062000a6d565b5b50905062000aaf919062000b39565b5090565b82805482825590600052602060002090810192821562000b07579160200282015b8281111562000b0657825182908051906020019062000af592919062000954565b509160200191906001019062000ad4565b5b50905062000b16919062000b39565b5090565b5b8082111562000b3557600081600090555060010162000b1b565b5090565b5b8082111562000b5d576000818162000b53919062000b61565b5060010162000b3a565b5090565b50805462000b6f9062000ba7565b6000825580601f1062000b83575062000ba4565b601f01602090049060005260206000209081019062000ba3919062000b1a565b5b50565b6000600282049050600182168062000bc057607f821691505b6020821081141562000bd75762000bd662000bdd565b5b50919050565b7f4e487b7100000000000000000000000000000000000000000000000000000000600052602260045260246000fd5b613f418062000c1c6000396000f3fe608060405234801561001057600080fd5b50600436106101165760003560e01c80638f8d7a14116100a2578063b88d4fde11610071578063b88d4fde14610317578063c575757a14610333578063c87b56dd14610363578063de9d132f14610393578063e985e9c51461039d57610116565b80638f8d7a141461027d57806395d89b41146102ad578063a22cb465146102cb578063b187301f146102e757610116565b806323b872dd116100e957806323b872dd146101b55780632de38d68146101d157806342842e0e146102015780636352211e1461021d57806370a082311461024d57610116565b806301ffc9a71461011b57806306fdde031461014b578063081812fc14610169578063095ea7b314610199575b600080fd5b6101356004803603810190610130919061244d565b6103cd565b6040516101429190612de2565b60405180910390f35b6101536104af565b6040516101609190612dfd565b60405180910390f35b610183600480360381019061017e919061249f565b610541565b6040516101909190612d52565b60405180910390f35b6101b360048036038101906101ae9190612411565b6105c6565b005b6101cf60048036038101906101ca919061230b565b6106de565b005b6101eb60048036038101906101e6919061249f565b61073e565b6040516101f89190612dfd565b60405180910390f35b61021b6004803603810190610216919061230b565b61085c565b005b6102376004803603810190610232919061249f565b61087c565b6040516102449190612d52565b60405180910390f35b610267600480360381019061026291906122a6565b61092e565b604051610274919061301f565b60405180910390f35b6102976004803603810190610292919061249f565b6109e6565b6040516102a49190612dfd565b60405180910390f35b6102b5610b04565b6040516102c29190612dfd565b60405180910390f35b6102e560048036038101906102e091906123d5565b610b96565b005b61030160048036038101906102fc919061249f565b610d17565b60405161030e9190612dfd565b60405180910390f35b610331600480360381019061032c919061235a565b610e35565b005b61034d6004803603810190610348919061249f565b610e97565b60405161035a9190612dfd565b60405180910390f35b61037d6004803603810190610378919061249f565b610fb5565b60405161038a9190612dfd565b60405180910390f35b61039b611107565b005b6103b760048036038101906103b291906122cf565b6112a6565b6040516103c49190612de2565b60405180910390f35b60007f80ac58cd000000000000000000000000000000000000000000000000000000007bffffffffffffffffffffffffffffffffffffffffffffffffffffffff1916827bffffffffffffffffffffffffffffffffffffffffffffffffffffffff1916148061049857507f5b5e139f000000000000000000000000000000000000000000000000000000007bffffffffffffffffffffffffffffffffffffffffffffffffffffffff1916827bffffffffffffffffffffffffffffffffffffffffffffffffffffffff1916145b806104a857506104a78261133a565b5b9050919050565b6060600080546104be906132b3565b80601f01602080910402602001604051908101604052809291908181526020018280546104ea906132b3565b80156105375780601f1061050c57610100808354040283529160200191610537565b820191906000526020600020905b81548152906001019060200180831161051a57829003601f168201915b5050505050905090565b600061054c826113a4565b61058b576040517f08c379a000000000000000000000000000000000000000000000000000000000815260040161058290612f7f565b60405180910390fd5b6004600083815260200190815260200160002060009054906101000a900473ffffffffffffffffffffffffffffffffffffffff169050919050565b60006105d18261087c565b90508073ffffffffffffffffffffffffffffffffffffffff168373ffffffffffffffffffffffffffffffffffffffff161415610642576040517f08c379a000000000000000000000000000000000000000000000000000000000815260040161063990612fdf565b60405180910390fd5b8073ffffffffffffffffffffffffffffffffffffffff16610661611410565b73ffffffffffffffffffffffffffffffffffffffff161480610690575061068f8161068a611410565b6112a6565b5b6106cf576040517f08c379a00000000000000000000000000000000000000000000000000000000081526004016106c690612ebf565b60405180910390fd5b6106d98383611418565b505050565b6106ef6106e9611410565b826114d1565b61072e576040517f08c379a000000000000000000000000000000000000000000000000000000000815260040161072590612fff565b60405180910390fd5b6107398383836115af565b505050565b6060600061077261074e8461180b565b60405160200161075e9190612cec565b6040516020818303038152906040526119b8565b905060098054905081610785919061335f565b9050600981815481106107c1577f4e487b7100000000000000000000000000000000000000000000000000000000600052603260045260246000fd5b9060005260206000200180546107d6906132b3565b80601f0160208091040260200160405190810160405280929190818152602001828054610802906132b3565b801561084f5780601f106108245761010080835404028352916020019161084f565b820191906000526020600020905b81548152906001019060200180831161083257829003601f168201915b5050505050915050919050565b61087783838360405180602001604052806000815250610e35565b505050565b6000806002600084815260200190815260200160002060009054906101000a900473ffffffffffffffffffffffffffffffffffffffff169050600073ffffffffffffffffffffffffffffffffffffffff168173ffffffffffffffffffffffffffffffffffffffff161415610925576040517f08c379a000000000000000000000000000000000000000000000000000000000815260040161091c90612eff565b60405180910390fd5b80915050919050565b60008073ffffffffffffffffffffffffffffffffffffffff168273ffffffffffffffffffffffffffffffffffffffff16141561099f576040517f08c379a000000000000000000000000000000000000000000000000000000000815260040161099690612edf565b60405180910390fd5b600360008373ffffffffffffffffffffffffffffffffffffffff1673ffffffffffffffffffffffffffffffffffffffff168152602001908152602001600020549050919050565b60606000610a1a6109f68461180b565b604051602001610a069190612d30565b6040516020818303038152906040526119b8565b9050600c8054905081610a2d919061335f565b9050600c8181548110610a69577f4e487b7100000000000000000000000000000000000000000000000000000000600052603260045260246000fd5b906000526020600020018054610a7e906132b3565b80601f0160208091040260200160405190810160405280929190818152602001828054610aaa906132b3565b8015610af75780601f10610acc57610100808354040283529160200191610af7565b820191906000526020600020905b815481529060010190602001808311610ada57829003601f168201915b5050505050915050919050565b606060018054610b13906132b3565b80601f0160208091040260200160405190810160405280929190818152602001828054610b3f906132b3565b8015610b8c5780601f10610b6157610100808354040283529160200191610b8c565b820191906000526020600020905b815481529060010190602001808311610b6f57829003601f168201915b5050505050905090565b610b9e611410565b73ffffffffffffffffffffffffffffffffffffffff168273ffffffffffffffffffffffffffffffffffffffff161415610c0c576040517f08c379a0000000000000000000000000000000000000000000000000000000008152600401610c0390612e7f565b60405180910390fd5b8060056000610c19611410565b73ffffffffffffffffffffffffffffffffffffffff1673ffffffffffffffffffffffffffffffffffffffff16815260200190815260200160002060008473ffffffffffffffffffffffffffffffffffffffff1673ffffffffffffffffffffffffffffffffffffffff16815260200190815260200160002060006101000a81548160ff0219169083151502179055508173ffffffffffffffffffffffffffffffffffffffff16610cc6611410565b73ffffffffffffffffffffffffffffffffffffffff167f17307eab39ab6107e8899845ad3d59bd9653f200f220920489ca2b5937696c3183604051610d0b9190612de2565b60405180910390a35050565b60606000610d4b610d278461180b565b604051602001610d379190612c70565b6040516020818303038152906040526119b8565b9050600a8054905081610d5e919061335f565b9050600a8181548110610d9a577f4e487b7100000000000000000000000000000000000000000000000000000000600052603260045260246000fd5b906000526020600020018054610daf906132b3565b80601f0160208091040260200160405190810160405280929190818152602001828054610ddb906132b3565b8015610e285780601f10610dfd57610100808354040283529160200191610e28565b820191906000526020600020905b815481529060010190602001808311610e0b57829003601f168201915b5050505050915050919050565b610e46610e40611410565b836114d1565b610e85576040517f08c379a0000000000000000000000000000000000000000000000000000000008152600401610e7c90612fff565b60405180910390fd5b610e91848484846119eb565b50505050565b60606000610ecb610ea78461180b565b604051602001610eb79190612c4e565b6040516020818303038152906040526119b8565b9050600b8054905081610ede919061335f565b9050600b8181548110610f1a577f4e487b7100000000000000000000000000000000000000000000000000000000600052603260045260246000fd5b906000526020600020018054610f2f906132b3565b80601f0160208091040260200160405190810160405280929190818152602001828054610f5b906132b3565b8015610fa85780601f10610f7d57610100808354040283529160200191610fa8565b820191906000526020600020905b815481529060010190602001808311610f8b57829003601f168201915b5050505050915050919050565b6060610fc0826113a4565b610fff576040517f08c379a0000000000000000000000000000000000000000000000000000000008152600401610ff690612f5f565b60405180910390fd5b600060066000848152602001908152602001600020805461101f906132b3565b80601f016020809104026020016040519081016040528092919081815260200182805461104b906132b3565b80156110985780601f1061106d57610100808354040283529160200191611098565b820191906000526020600020905b81548152906001019060200180831161107b57829003601f168201915b5050505050905060006110a9611a47565b90506000815114156110bf578192505050611102565b6000825111156110f45780826040516020016110dc929190612af9565b60405160208183030381529060405292505050611102565b6110fd84611a5e565b925050505b919050565b60006111136007611b05565b905060006111208261073e565b9050600061112d83610d17565b9050600061113a84610e97565b90506000611147856109e6565b90506000848484846040516020016111629493929190612b1d565b604051602081830303815290604052905060008585858560405160200161118c9493929190612bb8565b604051602081830303815290604052905060006040516020016111ae90612c92565b60405160208183030381529060405290506000600882846040516020016111d793929190612b7c565b6040516020818303038152906040529050600061121c856111f784611b13565b604051602001611208929190612ca7565b604051602081830303815290604052611b13565b90506000816040516020016112319190612d0e565b604051602081830303815290604052905061124c338c611cb2565b6112568b82611cd0565b6112606007611d44565b7febb98688741ffa4c7589bf325de30cf7becb63de567842e1ccdb6cb949fdc82c338c604051611291929190612db9565b60405180910390a15050505050505050505050565b6000600560008473ffffffffffffffffffffffffffffffffffffffff1673ffffffffffffffffffffffffffffffffffffffff16815260200190815260200160002060008373ffffffffffffffffffffffffffffffffffffffff1673ffffffffffffffffffffffffffffffffffffffff16815260200190815260200160002060009054906101000a900460ff16905092915050565b60007f01ffc9a7000000000000000000000000000000000000000000000000000000007bffffffffffffffffffffffffffffffffffffffffffffffffffffffff1916827bffffffffffffffffffffffffffffffffffffffffffffffffffffffff1916149050919050565b60008073ffffffffffffffffffffffffffffffffffffffff166002600084815260200190815260200160002060009054906101000a900473ffffffffffffffffffffffffffffffffffffffff1673ffffffffffffffffffffffffffffffffffffffff1614159050919050565b600033905090565b816004600083815260200190815260200160002060006101000a81548173ffffffffffffffffffffffffffffffffffffffff021916908373ffffffffffffffffffffffffffffffffffffffff160217905550808273ffffffffffffffffffffffffffffffffffffffff1661148b8361087c565b73ffffffffffffffffffffffffffffffffffffffff167f8c5be1e5ebec7d5bd14f71427d1e84f3dd0314c0f7b2291e5b200ac8c7c3b92560405160405180910390a45050565b60006114dc826113a4565b61151b576040517f08c379a000000000000000000000000000000000000000000000000000000000815260040161151290612e9f565b60405180910390fd5b60006115268361087c565b90508073ffffffffffffffffffffffffffffffffffffffff168473ffffffffffffffffffffffffffffffffffffffff16148061159557508373ffffffffffffffffffffffffffffffffffffffff1661157d84610541565b73ffffffffffffffffffffffffffffffffffffffff16145b806115a657506115a581856112a6565b5b91505092915050565b8273ffffffffffffffffffffffffffffffffffffffff166115cf8261087c565b73ffffffffffffffffffffffffffffffffffffffff1614611625576040517f08c379a000000000000000000000000000000000000000000000000000000000815260040161161c90612f9f565b60405180910390fd5b600073ffffffffffffffffffffffffffffffffffffffff168273ffffffffffffffffffffffffffffffffffffffff161415611695576040517f08c379a000000000000000000000000000000000000000000000000000000000815260040161168c90612e5f565b60405180910390fd5b6116a0838383611d5a565b6116ab600082611418565b6001600360008573ffffffffffffffffffffffffffffffffffffffff1673ffffffffffffffffffffffffffffffffffffffff16815260200190815260200160002060008282546116fb91906131c9565b925050819055506001600360008473ffffffffffffffffffffffffffffffffffffffff1673ffffffffffffffffffffffffffffffffffffffff168152602001908152602001600020600082825461175291906130e8565b92505081905550816002600083815260200190815260200160002060006101000a81548173ffffffffffffffffffffffffffffffffffffffff021916908373ffffffffffffffffffffffffffffffffffffffff160217905550808273ffffffffffffffffffffffffffffffffffffffff168473ffffffffffffffffffffffffffffffffffffffff167fddf252ad1be2c89b69c2b068fc378daa952ba7f163c4a11628f55a4df523b3ef60405160405180910390a4505050565b60606000821415611853576040518060400160405280600181526020017f300000000000000000000000000000000000000000000000000000000000000081525090506119b3565b600082905060005b6000821461188557808061186e90613316565b915050600a8261187e919061313e565b915061185b565b60008167ffffffffffffffff8111156118c7577f4e487b7100000000000000000000000000000000000000000000000000000000600052604160045260246000fd5b6040519080825280601f01601f1916602001820160405280156118f95781602001600182028036833780820191505090505b5090505b600085146119ac5760018261191291906131c9565b9150600a85611921919061335f565b603061192d91906130e8565b60f81b818381518110611969577f4e487b7100000000000000000000000000000000000000000000000000000000600052603260045260246000fd5b60200101907effffffffffffffffffffffffffffffffffffffffffffffffffffffffffffff1916908160001a905350600a856119a5919061313e565b94506118fd565b8093505050505b919050565b6000816040516020016119cb9190612ae2565b6040516020818303038152906040528051906020012060001c9050919050565b6119f68484846115af565b611a0284848484611d5f565b611a41576040517f08c379a0000000000000000000000000000000000000000000000000000000008152600401611a3890612e1f565b60405180910390fd5b50505050565b606060405180602001604052806000815250905090565b6060611a69826113a4565b611aa8576040517f08c379a0000000000000000000000000000000000000000000000000000000008152600401611a9f90612fbf565b60405180910390fd5b6000611ab2611a47565b90506000815111611ad25760405180602001604052806000815250611afd565b80611adc8461180b565b604051602001611aed929190612af9565b6040516020818303038152906040525b915050919050565b600081600001549050919050565b6060600082511415611b3657604051806020016040528060008152509050611cad565b6000604051806060016040528060408152602001613ecc6040913990506000600360028551611b6591906130e8565b611b6f919061313e565b6004611b7b919061316f565b90506000602082611b8c91906130e8565b67ffffffffffffffff811115611bcb577f4e487b7100000000000000000000000000000000000000000000000000000000600052604160045260246000fd5b6040519080825280601f01601f191660200182016040528015611bfd5781602001600182028036833780820191505090505b509050818152600183018586518101602084015b81831015611c6c576003830192508251603f8160121c168501518253600182019150603f81600c1c168501518253600182019150603f8160061c168501518253600182019150603f8116850151825360018201915050611c11565b600389510660018114611c865760028114611c9657611ca1565b613d3d60f01b6002830352611ca1565b603d60f81b60018303525b50505050508093505050505b919050565b611ccc828260405180602001604052806000815250611ef6565b5050565b611cd9826113a4565b611d18576040517f08c379a0000000000000000000000000000000000000000000000000000000008152600401611d0f90612f1f565b60405180910390fd5b80600660008481526020019081526020016000209080519060200190611d3f929190612132565b505050565b6001816000016000828254019250508190555050565b505050565b6000611d808473ffffffffffffffffffffffffffffffffffffffff16611f51565b15611ee9578373ffffffffffffffffffffffffffffffffffffffff1663150b7a02611da9611410565b8786866040518563ffffffff1660e01b8152600401611dcb9493929190612d6d565b602060405180830381600087803b158015611de557600080fd5b505af1925050508015611e1657506040513d601f19601f82011682018060405250810190611e139190612476565b60015b611e99573d8060008114611e46576040519150601f19603f3d011682016040523d82523d6000602084013e611e4b565b606091505b50600081511415611e91576040517f08c379a0000000000000000000000000000000000000000000000000000000008152600401611e8890612e1f565b60405180910390fd5b805181602001fd5b63150b7a0260e01b7bffffffffffffffffffffffffffffffffffffffffffffffffffffffff1916817bffffffffffffffffffffffffffffffffffffffffffffffffffffffff191614915050611eee565b600190505b949350505050565b611f008383611f64565b611f0d6000848484611d5f565b611f4c576040517f08c379a0000000000000000000000000000000000000000000000000000000008152600401611f4390612e1f565b60405180910390fd5b505050565b600080823b905060008111915050919050565b600073ffffffffffffffffffffffffffffffffffffffff168273ffffffffffffffffffffffffffffffffffffffff161415611fd4576040517f08c379a0000000000000000000000000000000000000000000000000000000008152600401611fcb90612f3f565b60405180910390fd5b611fdd816113a4565b1561201d576040517f08c379a000000000000000000000000000000000000000000000000000000000815260040161201490612e3f565b60405180910390fd5b61202960008383611d5a565b6001600360008473ffffffffffffffffffffffffffffffffffffffff1673ffffffffffffffffffffffffffffffffffffffff168152602001908152602001600020600082825461207991906130e8565b92505081905550816002600083815260200190815260200160002060006101000a81548173ffffffffffffffffffffffffffffffffffffffff021916908373ffffffffffffffffffffffffffffffffffffffff160217905550808273ffffffffffffffffffffffffffffffffffffffff16600073ffffffffffffffffffffffffffffffffffffffff167fddf252ad1be2c89b69c2b068fc378daa952ba7f163c4a11628f55a4df523b3ef60405160405180910390a45050565b82805461213e906132b3565b90600052602060002090601f01602090048101928261216057600085556121a7565b82601f1061217957805160ff19168380011785556121a7565b828001600101855582156121a7579182015b828111156121a657825182559160200191906001019061218b565b5b5090506121b491906121b8565b5090565b5b808211156121d15760008160009055506001016121b9565b5090565b60006121e86121e38461305f565b61303a565b90508281526020810184848401111561220057600080fd5b61220b848285613271565b509392505050565b60008135905061222281613e6f565b92915050565b60008135905061223781613e86565b92915050565b60008135905061224c81613e9d565b92915050565b60008151905061226181613e9d565b92915050565b600082601f83011261227857600080fd5b81356122888482602086016121d5565b91505092915050565b6000813590506122a081613eb4565b92915050565b6000602082840312156122b857600080fd5b60006122c684828501612213565b91505092915050565b600080604083850312156122e257600080fd5b60006122f085828601612213565b925050602061230185828601612213565b9150509250929050565b60008060006060848603121561232057600080fd5b600061232e86828701612213565b935050602061233f86828701612213565b925050604061235086828701612291565b9150509250925092565b6000806000806080858703121561237057600080fd5b600061237e87828801612213565b945050602061238f87828801612213565b93505060406123a087828801612291565b925050606085013567ffffffffffffffff8111156123bd57600080fd5b6123c987828801612267565b91505092959194509250565b600080604083850312156123e857600080fd5b60006123f685828601612213565b925050602061240785828601612228565b9150509250929050565b6000806040838503121561242457600080fd5b600061243285828601612213565b925050602061244385828601612291565b9150509250929050565b60006020828403121561245f57600080fd5b600061246d8482850161223d565b91505092915050565b60006020828403121561248857600080fd5b600061249684828501612252565b91505092915050565b6000602082840312156124b157600080fd5b60006124bf84828501612291565b91505092915050565b6124d1816131fd565b82525050565b6124e08161320f565b82525050565b60006124f1826130a5565b6124fb81856130bb565b935061250b818560208601613280565b6125148161344c565b840191505092915050565b600061252a826130b0565b61253481856130cc565b9350612544818560208601613280565b61254d8161344c565b840191505092915050565b6000612563826130b0565b61256d81856130dd565b935061257d818560208601613280565b80840191505092915050565b60008154612596816132b3565b6125a081866130dd565b945060018216600081146125bb57600181146125cc576125ff565b60ff198316865281860193506125ff565b6125d585613090565b60005b838110156125f7578154818901526001820191506020810190506125d8565b838801955050505b50505092915050565b6000612615603f836130dd565b91506126208261345d565b603f82019050919050565b60006126386032836130cc565b9150612643826134ac565b604082019050919050565b600061265b601c836130cc565b9150612666826134fb565b602082019050919050565b600061267e600a836130dd565b915061268982613524565b600a82019050919050565b60006126a16024836130cc565b91506126ac8261354d565b604082019050919050565b60006126c46019836130cc565b91506126cf8261359c565b602082019050919050565b60006126e7600b836130dd565b91506126f2826135c5565b600b82019050919050565b600061270a602c836130cc565b9150612715826135ee565b604082019050919050565b600061272d6044836130dd565b91506127388261363d565b604482019050919050565b60006127506001836130dd565b915061275b826136b2565b600182019050919050565b60006127736038836130cc565b915061277e826136db565b604082019050919050565b6000612796602a836130cc565b91506127a18261372a565b604082019050919050565b60006127b96029836130cc565b91506127c482613779565b604082019050919050565b60006127dc602e836130cc565b91506127e7826137c8565b604082019050919050565b60006127ff6004836130dd565b915061280a82613817565b600482019050919050565b6000612823610142836130dd565b915061282e82613840565b61014282019050919050565b6000612847600f836130dd565b9150612852826139e8565b600f82019050919050565b600061286a6002836130dd565b915061287582613a11565b600282019050919050565b600061288d6007836130dd565b915061289882613a3a565b600782019050919050565b60006128b06020836130cc565b91506128bb82613a63565b602082019050919050565b60006128d36031836130cc565b91506128de82613a8c565b604082019050919050565b60006128f6602c836130cc565b915061290182613adb565b604082019050919050565b60006129196058836130dd565b915061292482613b2a565b605882019050919050565b600061293c6029836130cc565b915061294782613b9f565b604082019050919050565b600061295f602f836130cc565b915061296a82613bee565b604082019050919050565b6000612982603b836130dd565b915061298d82613c3d565b603b82019050919050565b60006129a5600a836130dd565b91506129b082613c8c565b600a82019050919050565b60006129c86021836130cc565b91506129d382613cb5565b604082019050919050565b60006129eb600a836130dd565b91506129f682613d04565b600a82019050919050565b6000612a0e601d836130dd565b9150612a1982613d2d565b601d82019050919050565b6000612a316009836130dd565b9150612a3c82613d56565b600982019050919050565b6000612a546031836130cc565b9150612a5f82613d7f565b604082019050919050565b6000612a77603f836130dd565b9150612a8282613dce565b603f82019050919050565b6000612a9a600a836130dd565b9150612aa582613e1d565b600a82019050919050565b6000612abd6006836130dd565b9150612ac882613e46565b600682019050919050565b612adc81613267565b82525050565b6000612aee8284612558565b915081905092915050565b6000612b058285612558565b9150612b118284612558565b91508190509392505050565b6000612b298287612558565b9150612b34826127f2565b9150612b408286612558565b9150612b4b82612a24565b9150612b578285612558565b9150612b6282612743565b9150612b6e8284612558565b915081905095945050505050565b6000612b888286612589565b9150612b948285612558565b9150612ba08284612558565b9150612bab82612ab0565b9150819050949350505050565b6000612bc382612608565b9150612bcf8287612558565b9150612bda82612880565b9150612be582612720565b9150612bf18286612558565b9150612bfc8261283a565b9150612c0782612975565b9150612c138285612558565b9150612c1e82612880565b9150612c2982612a6a565b9150612c358284612558565b9150612c4082612880565b915081905095945050505050565b6000612c5982612671565b9150612c658284612558565b915081905092915050565b6000612c7b826126da565b9150612c878284612558565b915081905092915050565b6000612c9d82612815565b9150819050919050565b6000612cb282612998565b9150612cbe8285612558565b9150612cc98261290c565b9150612cd58284612558565b9150612ce08261285d565b91508190509392505050565b6000612cf7826129de565b9150612d038284612558565b915081905092915050565b6000612d1982612a01565b9150612d258284612558565b915081905092915050565b6000612d3b82612a8d565b9150612d478284612558565b915081905092915050565b6000602082019050612d6760008301846124c8565b92915050565b6000608082019050612d8260008301876124c8565b612d8f60208301866124c8565b612d9c6040830185612ad3565b8181036060830152612dae81846124e6565b905095945050505050565b6000604082019050612dce60008301856124c8565b612ddb6020830184612ad3565b9392505050565b6000602082019050612df760008301846124d7565b92915050565b60006020820190508181036000830152612e17818461251f565b905092915050565b60006020820190508181036000830152612e388161262b565b9050919050565b60006020820190508181036000830152612e588161264e565b9050919050565b60006020820190508181036000830152612e7881612694565b9050919050565b60006020820190508181036000830152612e98816126b7565b9050919050565b60006020820190508181036000830152612eb8816126fd565b9050919050565b60006020820190508181036000830152612ed881612766565b9050919050565b60006020820190508181036000830152612ef881612789565b9050919050565b60006020820190508181036000830152612f18816127ac565b9050919050565b60006020820190508181036000830152612f38816127cf565b9050919050565b60006020820190508181036000830152612f58816128a3565b9050919050565b60006020820190508181036000830152612f78816128c6565b9050919050565b60006020820190508181036000830152612f98816128e9565b9050919050565b60006020820190508181036000830152612fb88161292f565b9050919050565b60006020820190508181036000830152612fd881612952565b9050919050565b60006020820190508181036000830152612ff8816129bb565b9050919050565b6000602082019050818103600083015261301881612a47565b9050919050565b60006020820190506130346000830184612ad3565b92915050565b6000613044613055565b905061305082826132e5565b919050565b6000604051905090565b600067ffffffffffffffff82111561307a5761307961341d565b5b6130838261344c565b9050602081019050919050565b60008190508160005260206000209050919050565b600081519050919050565b600081519050919050565b600082825260208201905092915050565b600082825260208201905092915050565b600081905092915050565b60006130f382613267565b91506130fe83613267565b9250827fffffffffffffffffffffffffffffffffffffffffffffffffffffffffffffffff0382111561313357613132613390565b5b828201905092915050565b600061314982613267565b915061315483613267565b925082613164576131636133bf565b5b828204905092915050565b600061317a82613267565b915061318583613267565b9250817fffffffffffffffffffffffffffffffffffffffffffffffffffffffffffffffff04831182151516156131be576131bd613390565b5b828202905092915050565b60006131d482613267565b91506131df83613267565b9250828210156131f2576131f1613390565b5b828203905092915050565b600061320882613247565b9050919050565b60008115159050919050565b60007fffffffff0000000000000000000000000000000000000000000000000000000082169050919050565b600073ffffffffffffffffffffffffffffffffffffffff82169050919050565b6000819050919050565b82818337600083830152505050565b60005b8381101561329e578082015181840152602081019050613283565b838111156132ad576000848401525b50505050565b600060028204905060018216806132cb57607f821691505b602082108114156132df576132de6133ee565b5b50919050565b6132ee8261344c565b810181811067ffffffffffffffff8211171561330d5761330c61341d565b5b80604052505050565b600061332182613267565b91507fffffffffffffffffffffffffffffffffffffffffffffffffffffffffffffffff82141561335457613353613390565b5b600182019050919050565b600061336a82613267565b915061337583613267565b925082613385576133846133bf565b5b828206905092915050565b7f4e487b7100000000000000000000000000000000000000000000000000000000600052601160045260246000fd5b7f4e487b7100000000000000000000000000000000000000000000000000000000600052601260045260246000fd5b7f4e487b7100000000000000000000000000000000000000000000000000000000600052602260045260246000fd5b7f4e487b7100000000000000000000000000000000000000000000000000000000600052604160045260246000fd5b6000601f19601f8301169050919050565b7f3c7465787420636c6173733d22626173652220786d6c3a73706163653d22707260008201527f6573657276652220793d223230342e3731352220783d2232342e323836223e00602082015250565b7f4552433732313a207472616e7366657220746f206e6f6e20455243373231526560008201527f63656976657220696d706c656d656e7465720000000000000000000000000000602082015250565b7f4552433732313a20746f6b656e20616c7265616479206d696e74656400000000600082015250565b7f54484952445f574f524400000000000000000000000000000000000000000000600082015250565b7f4552433732313a207472616e7366657220746f20746865207a65726f2061646460008201527f7265737300000000000000000000000000000000000000000000000000000000602082015250565b7f4552433732313a20617070726f766520746f2063616c6c657200000000000000600082015250565b7f5345434f4e445f574f5244000000000000000000000000000000000000000000600082015250565b7f4552433732313a206f70657261746f7220717565727920666f72206e6f6e657860008201527f697374656e7420746f6b656e0000000000000000000000000000000000000000602082015250565b7f3c7465787420636c6173733d22626173652220786d6c3a73706163653d22707260008201527f6573657276652220793d223234312e3731352220783d2232342e323836223e6960208201527f6e20612000000000000000000000000000000000000000000000000000000000604082015250565b7f2000000000000000000000000000000000000000000000000000000000000000600082015250565b7f4552433732313a20617070726f76652063616c6c6572206973206e6f74206f7760008201527f6e6572206e6f7220617070726f76656420666f7220616c6c0000000000000000602082015250565b7f4552433732313a2062616c616e636520717565727920666f7220746865207a6560008201527f726f206164647265737300000000000000000000000000000000000000000000602082015250565b7f4552433732313a206f776e657220717565727920666f72206e6f6e657869737460008201527f656e7420746f6b656e0000000000000000000000000000000000000000000000602082015250565b7f45524337323155524953746f726167653a2055524920736574206f66206e6f6e60008201527f6578697374656e7420746f6b656e000000000000000000000000000000000000602082015250565b7f20696e2000000000000000000000000000000000000000000000000000000000600082015250565b7f3c73766720786d6c6e733d27687474703a2f2f7777772e77332e6f72672f323060008201527f30302f737667272077696474683d2733353027206865696768743d273335302760208201527f3e3c646566733e3c6c696e6561724772616469656e742069643d27673127206760408201527f72616469656e74556e6974733d277573657253706163654f6e5573652720783160608201527f3d272d392e313525272079313d2731352e383525272078323d273130392e313560808201527f25272079323d2738342e313525273e3c73746f702073746f702d636f6c6f723d60a08201527f2723613163346664272f3e3c73746f70206f66667365743d2731272073746f7060c08201527f2d636f6c6f723d2723633265396662272f3e3c2f6c696e65617247726164696560e08201527f6e743e3c2f646566733e3c726563742077696474683d273130302527206865696101008201527f6768743d2731303025272066696c6c3d2775726c2823673129272f3e3c2f73766101208201527f673e00000000000000000000000000000000000000000000000000000000000061014082015250565b7f20737461727475703c2f746578743e0000000000000000000000000000000000600082015250565b7f227d000000000000000000000000000000000000000000000000000000000000600082015250565b7f3c2f746578743e00000000000000000000000000000000000000000000000000600082015250565b7f4552433732313a206d696e7420746f20746865207a65726f2061646472657373600082015250565b7f45524337323155524953746f726167653a2055524920717565727920666f722060008201527f6e6f6e6578697374656e7420746f6b656e000000000000000000000000000000602082015250565b7f4552433732313a20617070726f76656420717565727920666f72206e6f6e657860008201527f697374656e7420746f6b656e0000000000000000000000000000000000000000602082015250565b7f222c20226465736372697074696f6e223a20224a7573742042616e67616c6f7260008201527f65205465636842726f207468696e67732e222c2022696d616765223a2022646160208201527f74613a696d6167652f7376672b786d6c3b6261736536342c0000000000000000604082015250565b7f4552433732313a207472616e73666572206f6620746f6b656e2074686174206960008201527f73206e6f74206f776e0000000000000000000000000000000000000000000000602082015250565b7f4552433732314d657461646174613a2055524920717565727920666f72206e6f60008201527f6e6578697374656e7420746f6b656e0000000000000000000000000000000000602082015250565b7f3c7465787420636c6173733d22626173652220786d6c3a73706163653d22707260008201527f6573657276652220793d223237392220783d2232342e323937223e0000000000602082015250565b7f7b226e616d65223a202200000000000000000000000000000000000000000000600082015250565b7f4552433732313a20617070726f76616c20746f2063757272656e74206f776e6560008201527f7200000000000000000000000000000000000000000000000000000000000000602082015250565b7f46495253545f574f524400000000000000000000000000000000000000000000600082015250565b7f646174613a6170706c69636174696f6e2f6a736f6e3b6261736536342c000000600082015250565b7f2073746172747570200000000000000000000000000000000000000000000000600082015250565b7f4552433732313a207472616e736665722063616c6c6572206973206e6f74206f60008201527f776e6572206e6f7220617070726f766564000000000000000000000000000000602082015250565b7f3c7465787420636c6173733d22626173652220786d6c3a73706163653d22707260008201527f6573657276652220793d223331342e3731352220783d2232342e323836223e00602082015250565b7f464f5254485f574f524400000000000000000000000000000000000000000000600082015250565b7f3c2f7376673e0000000000000000000000000000000000000000000000000000600082015250565b613e78816131fd565b8114613e8357600080fd5b50565b613e8f8161320f565b8114613e9a57600080fd5b50565b613ea68161321b565b8114613eb157600080fd5b50565b613ebd81613267565b8114613ec857600080fd5b5056fe4142434445464748494a4b4c4d4e4f505152535455565758595a6162636465666768696a6b6c6d6e6f707172737475767778797a303132333435363738392b2fa26469706673582212203257320d74912245170da3cd3bf7d4767707560d652775e36fff9d604a00bea464736f6c634300080400333c7376672077696474683d2233353022206865696768743d223335302220786d6c6e733d22687474703a2f2f7777772e77332e6f72672f323030302f73766722207072657365727665417370656374526174696f3d22784d696e594d696e206d656574223e3c7374796c653e2e626173657b66696c6c3a233231323132313b666f6e742d66616d696c793a48656c7665746963612c2073616e732d73657269663b666f6e742d73697a653a323070783b666f6e742d7765696768743a3730303b746578742d616e63686f723a73746172747d3c2f7374796c653e3c726563742066696c6c3d2223303030222077696474683d223130302522206865696768743d223130302522202f3e7768696c6520636865636b696e672074776974746572206f6e207468652073696465",
  "linkReferences": {},
  "deployedLinkReferences": {}
}